:1000000068C04AC381C080C0B6C07EC07DC07CC00D
:10001000CEC07AC079C078C077C076C075C01201F2
:10002000100100000008C016E405000101020001F3
:10003000090265000201000032090400000001010C
:100040000000092401000109000101090401000266
:100050000103000007240100014100062402010100
:100060000006240202020009240301030102010028
:100070000924030204010101000905010308000A23
:10008000000005250101010905810308000A00009F
:100090000525010103040309040A034200610075F8
:1000A000006D002E034200610075006D0027007393
:1000B0000020004D004900440049002D0043006F1E
:1000C000006E00740072006F006C006C00650072BE
:1000D000000011241FBECFE5D1E0DEBFCDBF10E090
:1000E000A0E6B0E0EAE8F9E002C005900D92A23681
:1000F000B107D9F710E0A2E6B0E001C01D92AD391A
:10010000B107E1F782D03FC47BCFFC01838181300E
:1001100041F48EE190E0909382008093810082E12F
:10012000089580E390E0909382008093810085E6BB
:1001300008958FEF0895FC011082118212821382BC
:1001400014821582168287E0089581E0089508954B
:1001500088EC90E09093640080936300C19A0895C6
:1001600082E087BB84E080BF89BF089583E287B9BE
:100170008FEE86B908951F920F920FB60F92112439
:100180008F939F938091630090916400009741F05A
:1001900001979093640080936300892B09F4C198C0
:1001A0009F918F910F900FBE0F901F9018951F92E7
:1001B0000F920FB60F9211248F9385B18093620036
:1001C0008F910F900FBE0F901F901895E199FECF61
:1001D00080E090E0C2D38F3F09F081BF2FE088E13B
:1001E00090E00FB6F894A89581BD0FBE21BDA9D0AF
:1001F000B89A20E04DE150E104C0A895CA010197EA
:10020000F1F72150D1F7B89808959F92AF92BF921D
:10021000CF92DF92EF92FF920F931F93DF93CF93D2
:10022000CDB7DEB728970FB6F894DEBF0FBECDBFAF
:1002300082E087BB84E080BF89BF83E287B98FEE0D
:1002400086B9C4DF78940FEF1FEF38ECC32ED12CA2
:100250002BE0922E90EBA92E86E4B82E7E01089416
:10026000E11CF11CA8959FD08091720084FFFACF09
:1002700020916200822F90E08017910799F3D0922D
:100280006400C0926300C19A9982AA82BB822695BB
:100290002C83C70164E062D080916200082F10E0D7
:1002A000E1CFDF92EF92FF920F931F93CF93DF93F3
:1002B000F89400E040E8D42EEE24FF241D2D100F0A
:1002C00011BFD7D1EC0189E0C433D8070CF0102F4F
:1002D000D6940894E11CF11C88E0E816F10411F0B2
:1002E000012FECCF115011BF1F5FE12EFF240894A6
:1002F000E11CF11C13C0BDD19C012453394037FFD0
:1003000003C0309521953F4F2C173D0714F09E01F7
:1003100001C011B781B78F5F81BFE90181B790E05C
:10032000E816F90644F711BF789461B780E090E0D1
:100330001CD3DF91CF911F910F91FF90EF90DF9031
:10034000089585B7826085BF8BB780648BBF8BE4CF
:10035000809373008AE58093720008951F93DC01F7
:10036000162F809172008E31E1F08091720084FF2F
:1003700007C08091730098E889278093730003C0B9
:100380008AE580937200912FE4E7F0E08D918193EC
:100390009150E1F784E790E0612F67D11C5F1093E3
:1003A00072001F9108951F93CF93DF936091830094
:1003B000635067FDCBC080918000CCE0D0E0C81BCB
:1003C000D109C957DF4F80917F00803118F4CE01E9
:1003D000BEDEBAC08D3209F0A7C0683009F0B4C0E3
:1003E00083EC809367008AE580936000109266003A
:1003F0009881892F807621F0CE019BDE282F81C045
:100400002A813C81109270008981882381F49F7138
:10041000923049F4313839F4809172008E3119F4F8
:1004200081E0809370001092710022E063C08130FF
:1004300011F0833089F4222309F05BC0313809F0D0
:1004400058C0813011F08EE101C08AE580937200BE
:100450008BE4809373004DC0853019F420938400A1
:1004600048C0863079F58B81813011F0823021F4DB
:10047000CE014BDE282F22C08330F9F48A818823F5
:1004800041F485E990E0909382008093810024E01C
:1004900015C0813041F489E990E090938200809307
:1004A00081002AE00BC0823041F483EA90E090930F
:1004B0008200809381002EE201C020E080E48093DE
:1004C00066001FC0883021F421E086E890E014C067
:1004D000893019F42093860009C08A3011F421E094
:1004E00009C08B3031F48BE4809373008AE58093EC
:1004F000720020E080E790E090938200809381007A
:1005000009C02F3F39F4888187FD2E8180E88093D0
:10051000660006C08F81882319F48E81821708F047
:10052000822F8093610010C08091660087FF0CC00D
:10053000CE010BDE8F3F21F48EE18093600004C07A
:10054000882311F010926100109283008091600066
:1005500084FF58C0809161008F3F09F453C0182F69
:10056000893008F018E0811B80936100809167005A
:1005700098E8892780936700112391F180916600A4
:1005800087FF08C088E690E0612FD5DD182F8930FD
:1005900098F526C0209181003091820086FF0DC021
:1005A000A8E6B0E080E090E0F901E80FF91FE491DF
:1005B000ED9301961817C1F708C0912FD901E8E60D
:1005C000F0E08D9181939150E1F71150812F90E0EF
:1005D0001F5F0196820F931F90938200809381008A
:1005E00088E690E0612F41D0612F6C5F6C3041F064
:1005F0008FEF8093610004C08FEF809361006EE104
:100600006093600094E186B3857049F49150D9F706
:100610001092840010927E008AE58093720010E0B0
:10062000992309F411E080916500811729F01123C5
:1006300009F437DE10936500DF91CF911F91089583
:10064000A82FB92F80E090E041E050EA609530E0BB
:1006500009C02D9182279795879510F084279527BB
:10066000305EC8F36F5FA8F30895EADF8D939D9322
:100670000895A6E088279927AA9569F00197E1F3E4
:10068000B099FCCFB09BFECF81E09927A6B301962D
:1006900011F0A570D9F70895CF93CFB7CF93C39535
:1006A000B09BE9F7B09B0BC0B09B09C0B09B07C0E3
:1006B000B09B05C0B09B03C0B09B01C0D8C00F92D7
:1006C000DF93C0918000DD27C957DF4F012EB09B1B
:1006D00003C0DF910F90E6CF2F930F931F934F939B
:1006E0002FEF4F6F06B300FB20F95F933F9350E06D
:1006F0003BE065C016B30126502950FDC89556B39E
:10070000012700FB25F92F7306B3B1F050271027FE
:1007100010FB26F906B22230F0F000C016B3012714
:1007200000FB27F90126502906B22430E8F54F775F
:10073000206816B30000F6CF50274F7D206206B226
:10074000102F000000C006B300265029102710FB10
:1007500026F906B2E2CF4F7B06B3206400C0DACFA1
:1007600001265029157006B269F14E7F2160012FD4
:1007700016B328C0002650294D7F06B22260102FE4
:1007800029C0012650294B7F06B22460012F2DC0BD
:1007900016B301265029477F2860000006B22EC0FC
:1007A0004F7E06B3206130C0422706B3499300262E
:1007B0005029102706B24FEF10FB20F9297F16B3FE
:1007C00079F2157059F10126502906B2012700FB74
:1007D00021F9237F06B371F2002650293150D0F061
:1007E00006B2102710FB22F9277E16B351F201261C
:1007F0005029012700FB06B223F92F7C49F20000A3
:1008000006B3102710FB24F90026502906B22F79D1
:1008100039F270CF10E41ABF00271CC03B5031954D
:10082000C31BD04010E41ABF0881033C21F10B34F4
:1008300011F120917E001981110F1213EDCF4A8121
:10084000441F093669F10D3211F0013E29F74F704E
:1008500009F0042F009385003F915F914F911F9104
:100860000F912F91DF910F90CAB7C6FD18CFCF918E
:10087000CFBFCF91189520918500222369F3109165
:100880008300112379F534307AF13093830020937B
:100890007F00109180003BE0311B3093800024C02A
:1008A000009183000130F4F40AE54F7049F430916F
:1008B000600034FD1AC000936000C7E6D0E019C0A4
:1008C0003091720034FD11C000937200C3E7D0E094
:1008D00010C0052710E000C021C0052710E0C89512
:1008E00008BB14C03AE501C032ED032EC0E0D0E0F1
:1008F00032E017B31560C09A08B317BB55E020E883
:100900004FEF20FF052708BB279517951C3F28F7B9
:1009100000004552B0F720FF0527279508BB179523
:100920001C3FB8F629913A9561F70A7F109184002F
:10093000110F08BBC250D04011F010937E0010E49C
:100940001ABF016017B31A7F402F4A7F54E05A95AF
:10095000F1F708BB17BB48BB7FCFE199FECF1FBAA9
:100960008EBBE09A99278DB30895262FE199FECF8B
:100970001CBA1FBA8EBB2DBB0FB6F894E29AE19A4F
:0A0980000FBE01960895F894FFCF12
:02098A005AFF12
:00000001FF
