:1000000068C082C02BC280C0C0C37EC07DC07CC01F
:10001000D8C37AC079C078C077C076C075C00403F1
:1000200009040A034200610075006D002E034200BE
:10003000610075006D002700730020004D0049002D
:10004000440049002D0043006F006E0074007200F0
:100050006F006C006C00650072001201100100005E
:100060000008C016E4050001010200010902650054
:10007000020100003209040000000101000009240F
:10008000010001090001010904010002010300004F
:100090000724010001410006240201010006240298
:1000A00002020009240301030102010009240302E2
:1000B00004010101000905010308000A00000525EB
:1000C0000101010905810308000A0000052501015D
:1000D000030011241FBECFE5D2E0DEBFCDBF10E08C
:1000E000A0E6B0E0E2E7F9E002C005900D92A2368A
:1000F000B107D9F710E0A2E6B0E001C01D92AD391A
:10010000B107E1F78FD333C47BCFAB9A8BB7806253
:100110008BBF8BE4809373008AE58093720008950F
:100120001F93DC01162F809172008E31E9F08091CF
:10013000720084FF07C08091730098E8892780933C
:10014000730003C08AE580937200912FE4E7F0E02A
:100150008D91819391501916DCF384E790E0612F23
:1001600066D11C5F109372001F9108951F93CF9367
:10017000DF9360918300635067FDCAC08091800067
:10018000CCE0D0E0C81BD109C957DF4F80917F0078
:10019000803118F4CE01E5D2B9C08D3209F0A6C085
:1001A000683009F0B3C083EC809367008AE58093E0
:1001B0006000109263009881892F807621F0CE0133
:1001C000C2D2282F80C02A813C8110927000898180
:1001D000882381F49F71923049F4313839F4809149
:1001E00072008E3119F481E08093700010927100DA
:1001F00022E062C0813011F0833089F4222309F0BB
:100200005AC0313809F057C0813011F08EE101C079
:100210008AE5809372008BE4809373004CC0853034
:1002200019F42093840047C0863071F58B818130AA
:1002300011F0823021F4CE0172D2282F21C08330F8
:10024000F1F4222341F48EE190E0909382008093B8
:10025000810024E015C0213041F482E290E09093C7
:100260008200809381002AE00BC0223041F48CE2AE
:1002700090E090938200809381002EE201C020E004
:1002800080E4809363001FC0883021F421E086E879
:1002900090E014C0893019F42093860009C08A3098
:1002A00011F421E009C08B3031F48BE480937300AA
:1002B0008AE58093720020E080E790E090938200CE
:1002C0008093810009C02F3F39F4888187FD2E81FA
:1002D00080E88093630006C08F81882319F48E81A3
:1002E000821708F0822F8093610010C08091630014
:1002F00087FF0CC0CE0133D28F3F21F48EE1809373
:10030000600004C0882311F01092610010928300F5
:100310008091600084FF58C0809161008F3F09F494
:1003200053C0182F893008F018E0811B80936100BA
:100330008091670098E8892780936700112391F1E5
:100340008091630087FF08C088E690E0612FFDD1AF
:10035000182F893098F526C02091810030918200B5
:1003600086FF0DC0A8E6B0E080E090E0F901E80F5C
:10037000F91FE491ED9301961817C1F708C0912F6A
:10038000D901E8E6F0E08D9181939150E1F71150A9
:10039000812F90E01F5F0196820F931F9093820040
:1003A0008093810088E690E0612F41D0612F6C5FDF
:1003B0006C3041F08FEF8093610004C08FEF809329
:1003C00061006EE16093600094E186B3887249F445
:1003D0009150D9F71092840010927E008AE58093A4
:1003E000720010E0992309F411E0809162008117F6
:1003F00029F0112309F463D210936200DF91CF91A9
:100400001F910895A82FB92F80E090E041E050EAB5
:10041000609530E009C02D9182279795879510F05F
:1004200084279527305EC8F36F5FA8F30895EADF4D
:100430008D939D930895A6E088279927AA9569F042
:100440000197E1F3B599FCCFB59BFECF81E09927E9
:10045000A6B3019611F0A872D9F70895CF93CFB73C
:10046000CF93C395B59BE9F7B59B0BC0B59B09C06E
:10047000B59B07C0B59B05C0B59B03C0B59B01C02C
:10048000D8C00F92DF93C0918000DD27C957DF4F9E
:10049000012EB59B03C0DF910F90E6CF2F930F93F2
:1004A0001F934F932FEF4F6F06B305FB20F95F9318
:1004B0003F9350E03BE065C016B30126502955FD3F
:1004C000C89556B3012705FB25F92F7306B3B1F084
:1004D0005027102715FB26F906B22230F0F000C095
:1004E00016B3012705FB27F90126502906B224304F
:1004F000E8F54F77206816B30000F6CF50274F7D00
:10050000206206B2102F000000C006B3002650295A
:10051000102715FB26F906B2E2CF4F7B06B3206405
:1005200000C0DACF01265029187206B269F14E7F59
:100530002160012F16B328C0002650294D7F06B236
:100540002260102F29C0012650294B7F06B224605B
:10055000012F2DC016B301265029477F28600000C7
:1005600006B22EC04F7E06B3206130C0422706B3CC
:10057000499300265029102706B24FEF15FB20F9AA
:10058000297F16B379F2187259F10126502906B263
:10059000012705FB21F9237F06B371F200265029BC
:1005A0003150D0F006B2102715FB22F9277E16B382
:1005B00051F201265029012705FB06B223F92F7CB1
:1005C00049F2000006B3102715FB24F90026502934
:1005D00006B22F7939F270CF10E21ABF00271CC083
:1005E0003B503195C31BD04010E21ABF0881033C39
:1005F00021F10B3411F120917E001981110F12139A
:10060000EDCF4A81441F093669F10D3211F0013EE8
:1006100029F74F7009F0042F009385003F915F91F7
:100620004F911F910F912F91DF910F90CAB7C5FD88
:1006300018CFCF91CFBFCF9118952091850022235D
:1006400069F310918300112379F534307AF13093F6
:10065000830020937F00109180003BE0311B30939A
:10066000800024C0009183000130F4F40AE54F704B
:1006700049F43091600034FD1AC000936000C7E671
:10068000D0E019C03091720034FD11C000937200A7
:10069000C3E7D0E010C0052710E000C021C0052747
:1006A00010E0C89508BB14C03AE501C032ED032E36
:1006B000C0E0D0E032E017B31862C59A08B317BBA8
:1006C00058E220E84FEF20FF052708BB2795179534
:1006D0001C3F28F700004552B0F720FF052727955B
:1006E00008BB17951C3FB8F629913A9561F7077D2D
:1006F00010918400110F08BBC250D04011F010932C
:100700007E0010E21ABF006217B3177D402F477DAD
:1007100054E05A95F1F708BB17BB48BB7FCFFC01EB
:100720008381813041F48AE590E090938200809348
:10073000810082E108958CE690E09093820080939E
:10074000810085E608958FEF0895FC0110821182E3
:100750001282138214821582168287E0089581E046
:100760000895089588EC90E090936600809365006A
:10077000C19A089582E087BB84E080BF89BF089555
:1007800083E287B98FEE86B908951F920F920FB654
:100790000F9211248F939F93809165009091660032
:1007A000009741F001979093660080936500892B34
:1007B00009F4C1989F918F910F900FBE0F901F90D9
:1007C00018951F920F920FB60F9211248F9385B137
:1007D000809364008F910F900FBE0F901F9018951B
:1007E000E199FECFE199FECF1FBA1EBAE09A8DB310
:1007F0008F3F09F081BF2FE088E190E00FB6F894B9
:10080000A89581BD0FBE21BD80DCBD9A20E04DE1E1
:1008100050E104C0A895CA010197F1F72150D1F722
:10082000BD9808958F929F92AF92BF92CF92DF9220
:10083000EF92FF920F931F93DF93CF93CDB7DEB765
:1008400028970FB6F894DEBF0FBECDBF82E087BBFE
:1008500084E080BF89BF83E287B98FEE86B9C0DFAD
:1008600078940FEF1FEF48ECC42ED12C3BE0832E81
:1008700020EB922E96E4A92E86E1B82E7E010894F4
:10088000E11CF11CA89572DC8091720084FFFACF04
:100890008091640090E080179107A1F3D0926600E8
:1008A000C0926500C19A89829A82AB82BC82C701DC
:1008B00064E036DC80916400082F10E0E3CFDF9223
:1008C000EF92FF920F931F93CF93DF93F89450E82A
:1008D000D52E00E0EE24FF241D2D100F11BFABDD3F
:1008E000EC0189E0C433D8070CF0102FD69408949B
:1008F000E11CF11C88E0E816F10411F0012FECCFA7
:10090000115011BF1F5FE12EFF240894E11CF11C60
:1009100013C091DD9C012453394037FF03C030954B
:1009200021953F4F2C173D0714F09E0101C011B7D0
:1009300081B78F5F81BFE90181B790E0E816F906C2
:1009400044F711BF789481B7E199FECF1CBA1FBA62
:100950001EBA8DBB0FB6F894E29AE19A0FBEDF91F2
:10096000CF911F910F91FF90EF90DF900895F89431
:02097000FFCFB7
:020972005AFF2A
:00000001FF
